{
  "contractName": "Stakable",
  "abi": [
    {
      "constant": false,
      "inputs": [
        {
          "name": "spender",
          "type": "address"
        },
        {
          "name": "value",
          "type": "uint256"
        }
      ],
      "name": "approve",
      "outputs": [
        {
          "name": "",
          "type": "bool"
        }
      ],
      "payable": false,
      "stateMutability": "nonpayable",
      "type": "function"
    },
    {
      "constant": true,
      "inputs": [],
      "name": "totalSupply",
      "outputs": [
        {
          "name": "",
          "type": "uint256"
        }
      ],
      "payable": false,
      "stateMutability": "view",
      "type": "function"
    },
    {
      "constant": false,
      "inputs": [
        {
          "name": "from",
          "type": "address"
        },
        {
          "name": "to",
          "type": "address"
        },
        {
          "name": "value",
          "type": "uint256"
        }
      ],
      "name": "transferFrom",
      "outputs": [
        {
          "name": "",
          "type": "bool"
        }
      ],
      "payable": false,
      "stateMutability": "nonpayable",
      "type": "function"
    },
    {
      "constant": false,
      "inputs": [
        {
          "name": "spender",
          "type": "address"
        },
        {
          "name": "addedValue",
          "type": "uint256"
        }
      ],
      "name": "increaseAllowance",
      "outputs": [
        {
          "name": "",
          "type": "bool"
        }
      ],
      "payable": false,
      "stateMutability": "nonpayable",
      "type": "function"
    },
    {
      "constant": true,
      "inputs": [
        {
          "name": "owner",
          "type": "address"
        }
      ],
      "name": "balanceOf",
      "outputs": [
        {
          "name": "",
          "type": "uint256"
        }
      ],
      "payable": false,
      "stateMutability": "view",
      "type": "function"
    },
    {
      "constant": true,
      "inputs": [],
      "name": "validatorSet",
      "outputs": [
        {
          "name": "totalPower",
          "type": "uint256"
        }
      ],
      "payable": false,
      "stateMutability": "view",
      "type": "function"
    },
    {
      "constant": false,
      "inputs": [
        {
          "name": "spender",
          "type": "address"
        },
        {
          "name": "subtractedValue",
          "type": "uint256"
        }
      ],
      "name": "decreaseAllowance",
      "outputs": [
        {
          "name": "",
          "type": "bool"
        }
      ],
      "payable": false,
      "stateMutability": "nonpayable",
      "type": "function"
    },
    {
      "constant": false,
      "inputs": [
        {
          "name": "to",
          "type": "address"
        },
        {
          "name": "value",
          "type": "uint256"
        }
      ],
      "name": "transfer",
      "outputs": [
        {
          "name": "",
          "type": "bool"
        }
      ],
      "payable": false,
      "stateMutability": "nonpayable",
      "type": "function"
    },
    {
      "constant": true,
      "inputs": [
        {
          "name": "owner",
          "type": "address"
        },
        {
          "name": "spender",
          "type": "address"
        }
      ],
      "name": "allowance",
      "outputs": [
        {
          "name": "",
          "type": "uint256"
        }
      ],
      "payable": false,
      "stateMutability": "view",
      "type": "function"
    },
    {
      "inputs": [],
      "payable": false,
      "stateMutability": "nonpayable",
      "type": "constructor"
    },
    {
      "anonymous": false,
      "inputs": [
        {
          "indexed": true,
          "name": "account",
          "type": "address"
        },
        {
          "indexed": false,
          "name": "power",
          "type": "uint256"
        }
      ],
      "name": "StakeUpdate",
      "type": "event"
    },
    {
      "anonymous": false,
      "inputs": [
        {
          "indexed": true,
          "name": "from",
          "type": "address"
        },
        {
          "indexed": true,
          "name": "to",
          "type": "address"
        },
        {
          "indexed": false,
          "name": "value",
          "type": "uint256"
        }
      ],
      "name": "Transfer",
      "type": "event"
    },
    {
      "anonymous": false,
      "inputs": [
        {
          "indexed": true,
          "name": "owner",
          "type": "address"
        },
        {
          "indexed": true,
          "name": "spender",
          "type": "address"
        },
        {
          "indexed": false,
          "name": "value",
          "type": "uint256"
        }
      ],
      "name": "Approval",
      "type": "event"
    },
    {
      "constant": false,
      "inputs": [
        {
          "name": "_power",
          "type": "uint256"
        }
      ],
      "name": "stakeDeposit",
      "outputs": [
        {
          "name": "",
          "type": "bool"
        }
      ],
      "payable": false,
      "stateMutability": "nonpayable",
      "type": "function"
    },
    {
      "constant": false,
      "inputs": [
        {
          "name": "_power",
          "type": "uint256"
        }
      ],
      "name": "stakeWithdraw",
      "outputs": [
        {
          "name": "",
          "type": "bool"
        }
      ],
      "payable": false,
      "stateMutability": "nonpayable",
      "type": "function"
    }
  ],
  "bytecode": "0x6080604052600060065534801561001557600080fd5b50611801806100256000396000f3fe6080604052600436106100af576000357c0100000000000000000000000000000000000000000000000000000000900463ffffffff168063095ea7b3146100b457806318160ddd146100f157806323b872dd1461011c578063395093511461015957806370a08231146101965780639426e226146101d3578063a1ad3ab2146101fe578063a457c2d71461023b578063a9059cbb14610278578063dd62ed3e146102b5578063f20e0f11146102f2575b600080fd5b3480156100c057600080fd5b506100db60048036036100d6919081019061160e565b61032f565b6040516100e891906116ff565b60405180910390f35b3480156100fd57600080fd5b5061010661045c565b604051610113919061175a565b60405180910390f35b34801561012857600080fd5b50610143600480360361013e91908101906115bf565b610466565b60405161015091906116ff565b60405180910390f35b34801561016557600080fd5b50610180600480360361017b919081019061160e565b61066e565b60405161018d91906116ff565b60405180910390f35b3480156101a257600080fd5b506101bd60048036036101b8919081019061155a565b6108a5565b6040516101ca919061175a565b60405180910390f35b3480156101df57600080fd5b506101e86108ed565b6040516101f5919061175a565b60405180910390f35b34801561020a57600080fd5b506102256004803603610220919081019061164a565b6108f9565b60405161023291906116ff565b60405180910390f35b34801561024757600080fd5b50610262600480360361025d919081019061160e565b61090e565b60405161026f91906116ff565b60405180910390f35b34801561028457600080fd5b5061029f600480360361029a919081019061160e565b610b45565b6040516102ac91906116ff565b60405180910390f35b3480156102c157600080fd5b506102dc60048036036102d79190810190611583565b610b5c565b6040516102e9919061175a565b60405180910390f35b3480156102fe57600080fd5b506103196004803603610314919081019061164a565b610be3565b60405161032691906116ff565b60405180910390f35b60008073ffffffffffffffffffffffffffffffffffffffff168373ffffffffffffffffffffffffffffffffffffffff161415151561036c57600080fd5b81600160003373ffffffffffffffffffffffffffffffffffffffff1673ffffffffffffffffffffffffffffffffffffffff16815260200190815260200160002060008573ffffffffffffffffffffffffffffffffffffffff1673ffffffffffffffffffffffffffffffffffffffff168152602001908152602001600020819055508273ffffffffffffffffffffffffffffffffffffffff163373ffffffffffffffffffffffffffffffffffffffff167f8c5be1e5ebec7d5bd14f71427d1e84f3dd0314c0f7b2291e5b200ac8c7c3b9258460405161044a919061175a565b60405180910390a36001905092915050565b6000600254905090565b60006104f782600160008773ffffffffffffffffffffffffffffffffffffffff1673ffffffffffffffffffffffffffffffffffffffff16815260200190815260200160002060003373ffffffffffffffffffffffffffffffffffffffff1673ffffffffffffffffffffffffffffffffffffffff16815260200190815260200160002054610bf890919063ffffffff16565b600160008673ffffffffffffffffffffffffffffffffffffffff1673ffffffffffffffffffffffffffffffffffffffff16815260200190815260200160002060003373ffffffffffffffffffffffffffffffffffffffff1673ffffffffffffffffffffffffffffffffffffffff16815260200190815260200160002081905550610582848484610c1a565b3373ffffffffffffffffffffffffffffffffffffffff168473ffffffffffffffffffffffffffffffffffffffff167f8c5be1e5ebec7d5bd14f71427d1e84f3dd0314c0f7b2291e5b200ac8c7c3b925600160008873ffffffffffffffffffffffffffffffffffffffff1673ffffffffffffffffffffffffffffffffffffffff16815260200190815260200160002060003373ffffffffffffffffffffffffffffffffffffffff1673ffffffffffffffffffffffffffffffffffffffff1681526020019081526020016000205460405161065b919061175a565b60405180910390a3600190509392505050565b60008073ffffffffffffffffffffffffffffffffffffffff168373ffffffffffffffffffffffffffffffffffffffff16141515156106ab57600080fd5b61073a82600160003373ffffffffffffffffffffffffffffffffffffffff1673ffffffffffffffffffffffffffffffffffffffff16815260200190815260200160002060008673ffffffffffffffffffffffffffffffffffffffff1673ffffffffffffffffffffffffffffffffffffffff16815260200190815260200160002054610de690919063ffffffff16565b600160003373ffffffffffffffffffffffffffffffffffffffff1673ffffffffffffffffffffffffffffffffffffffff16815260200190815260200160002060008573ffffffffffffffffffffffffffffffffffffffff1673ffffffffffffffffffffffffffffffffffffffff168152602001908152602001600020819055508273ffffffffffffffffffffffffffffffffffffffff163373ffffffffffffffffffffffffffffffffffffffff167f8c5be1e5ebec7d5bd14f71427d1e84f3dd0314c0f7b2291e5b200ac8c7c3b925600160003373ffffffffffffffffffffffffffffffffffffffff1673ffffffffffffffffffffffffffffffffffffffff16815260200190815260200160002060008773ffffffffffffffffffffffffffffffffffffffff1673ffffffffffffffffffffffffffffffffffffffff16815260200190815260200160002054604051610893919061175a565b60405180910390a36001905092915050565b60008060008373ffffffffffffffffffffffffffffffffffffffff1673ffffffffffffffffffffffffffffffffffffffff168152602001908152602001600020549050919050565b60038060020154905081565b60006109053383610e07565b60019050919050565b60008073ffffffffffffffffffffffffffffffffffffffff168373ffffffffffffffffffffffffffffffffffffffff161415151561094b57600080fd5b6109da82600160003373ffffffffffffffffffffffffffffffffffffffff1673ffffffffffffffffffffffffffffffffffffffff16815260200190815260200160002060008673ffffffffffffffffffffffffffffffffffffffff1673ffffffffffffffffffffffffffffffffffffffff16815260200190815260200160002054610bf890919063ffffffff16565b600160003373ffffffffffffffffffffffffffffffffffffffff1673ffffffffffffffffffffffffffffffffffffffff16815260200190815260200160002060008573ffffffffffffffffffffffffffffffffffffffff1673ffffffffffffffffffffffffffffffffffffffff168152602001908152602001600020819055508273ffffffffffffffffffffffffffffffffffffffff163373ffffffffffffffffffffffffffffffffffffffff167f8c5be1e5ebec7d5bd14f71427d1e84f3dd0314c0f7b2291e5b200ac8c7c3b925600160003373ffffffffffffffffffffffffffffffffffffffff1673ffffffffffffffffffffffffffffffffffffffff16815260200190815260200160002060008773ffffffffffffffffffffffffffffffffffffffff1673ffffffffffffffffffffffffffffffffffffffff16815260200190815260200160002054604051610b33919061175a565b60405180910390a36001905092915050565b6000610b52338484610c1a565b6001905092915050565b6000600160008473ffffffffffffffffffffffffffffffffffffffff1673ffffffffffffffffffffffffffffffffffffffff16815260200190815260200160002060008373ffffffffffffffffffffffffffffffffffffffff1673ffffffffffffffffffffffffffffffffffffffff16815260200190815260200160002054905092915050565b6000610bef3383611063565b60019050919050565b6000828211151515610c0957600080fd5b600082840390508091505092915050565b600073ffffffffffffffffffffffffffffffffffffffff168273ffffffffffffffffffffffffffffffffffffffff1614151515610c5657600080fd5b610ca7816000808673ffffffffffffffffffffffffffffffffffffffff1673ffffffffffffffffffffffffffffffffffffffff16815260200190815260200160002054610bf890919063ffffffff16565b6000808573ffffffffffffffffffffffffffffffffffffffff1673ffffffffffffffffffffffffffffffffffffffff16815260200190815260200160002081905550610d3a816000808573ffffffffffffffffffffffffffffffffffffffff1673ffffffffffffffffffffffffffffffffffffffff16815260200190815260200160002054610de690919063ffffffff16565b6000808473ffffffffffffffffffffffffffffffffffffffff1673ffffffffffffffffffffffffffffffffffffffff168152602001908152602001600020819055508173ffffffffffffffffffffffffffffffffffffffff168373ffffffffffffffffffffffffffffffffffffffff167fddf252ad1be2c89b69c2b068fc378daa952ba7f163c4a11628f55a4df523b3ef83604051610dd9919061175a565b60405180910390a3505050565b6000808284019050838110151515610dfd57600080fd5b8091505092915050565b80610e11836108a5565b10151515610e54576040517f08c379a0000000000000000000000000000000000000000000000000000000008152600401610e4b9061171a565b60405180910390fd5b610e5e828261128a565b6000600360000160008473ffffffffffffffffffffffffffffffffffffffff1673ffffffffffffffffffffffffffffffffffffffff168152602001908152602001600020541415610f135760036001018290806001815401808255809150509060018203906000526020600020016000909192909190916101000a81548173ffffffffffffffffffffffffffffffffffffffff021916908373ffffffffffffffffffffffffffffffffffffffff160217905550505b610f6881600360000160008573ffffffffffffffffffffffffffffffffffffffff1673ffffffffffffffffffffffffffffffffffffffff16815260200190815260200160002054610de690919063ffffffff16565b600360000160008473ffffffffffffffffffffffffffffffffffffffff1673ffffffffffffffffffffffffffffffffffffffff16815260200190815260200160002081905550610fc681600360020154610de690919063ffffffff16565b6003600201819055508173ffffffffffffffffffffffffffffffffffffffff167f89dbe872fd688c751e8c5df10849155d89d1467fd56ddb92b0d0024cda2ccd78600360000160008573ffffffffffffffffffffffffffffffffffffffff1673ffffffffffffffffffffffffffffffffffffffff16815260200190815260200160002054604051611057919061175a565b60405180910390a25050565b80600360000160008473ffffffffffffffffffffffffffffffffffffffff1673ffffffffffffffffffffffffffffffffffffffff16815260200190815260200160002054101515156110ea576040517f08c379a00000000000000000000000000000000000000000000000000000000081526004016110e19061173a565b60405180910390fd5b6110f482826113de565b61114981600360000160008573ffffffffffffffffffffffffffffffffffffffff1673ffffffffffffffffffffffffffffffffffffffff16815260200190815260200160002054610bf890919063ffffffff16565b600360000160008473ffffffffffffffffffffffffffffffffffffffff1673ffffffffffffffffffffffffffffffffffffffff168152602001908152602001600020819055506000600360000160008473ffffffffffffffffffffffffffffffffffffffff1673ffffffffffffffffffffffffffffffffffffffff16815260200190815260200160002050506111ed81600360020154610bf890919063ffffffff16565b6003600201819055508173ffffffffffffffffffffffffffffffffffffffff167f89dbe872fd688c751e8c5df10849155d89d1467fd56ddb92b0d0024cda2ccd78600360000160008573ffffffffffffffffffffffffffffffffffffffff1673ffffffffffffffffffffffffffffffffffffffff1681526020019081526020016000205460405161127e919061175a565b60405180910390a25050565b600073ffffffffffffffffffffffffffffffffffffffff168273ffffffffffffffffffffffffffffffffffffffff16141515156112c657600080fd5b6112db81600254610bf890919063ffffffff16565b600281905550611332816000808573ffffffffffffffffffffffffffffffffffffffff1673ffffffffffffffffffffffffffffffffffffffff16815260200190815260200160002054610bf890919063ffffffff16565b6000808473ffffffffffffffffffffffffffffffffffffffff1673ffffffffffffffffffffffffffffffffffffffff16815260200190815260200160002081905550600073ffffffffffffffffffffffffffffffffffffffff168273ffffffffffffffffffffffffffffffffffffffff167fddf252ad1be2c89b69c2b068fc378daa952ba7f163c4a11628f55a4df523b3ef836040516113d2919061175a565b60405180910390a35050565b600073ffffffffffffffffffffffffffffffffffffffff168273ffffffffffffffffffffffffffffffffffffffff161415151561141a57600080fd5b61142f81600254610de690919063ffffffff16565b600281905550611486816000808573ffffffffffffffffffffffffffffffffffffffff1673ffffffffffffffffffffffffffffffffffffffff16815260200190815260200160002054610de690919063ffffffff16565b6000808473ffffffffffffffffffffffffffffffffffffffff1673ffffffffffffffffffffffffffffffffffffffff168152602001908152602001600020819055508173ffffffffffffffffffffffffffffffffffffffff16600073ffffffffffffffffffffffffffffffffffffffff167fddf252ad1be2c89b69c2b068fc378daa952ba7f163c4a11628f55a4df523b3ef83604051611526919061175a565b60405180910390a35050565b600061153e82356117ab565b905092915050565b600061155282356117bd565b905092915050565b60006020828403121561156c57600080fd5b600061157a84828501611532565b91505092915050565b6000806040838503121561159657600080fd5b60006115a485828601611532565b92505060206115b585828601611532565b9150509250929050565b6000806000606084860312156115d457600080fd5b60006115e286828701611532565b93505060206115f386828701611532565b925050604061160486828701611546565b9150509250925092565b6000806040838503121561162157600080fd5b600061162f85828601611532565b925050602061164085828601611546565b9150509250929050565b60006020828403121561165c57600080fd5b600061166a84828501611546565b91505092915050565b61167c81611775565b82525050565b6000601282527f6e6f7420656e6f7567682062616c616e636500000000000000000000000000006020830152604082019050919050565b6000601082527f6e6f7420656e6f756768207374616b65000000000000000000000000000000006020830152604082019050919050565b6116f9816117a1565b82525050565b60006020820190506117146000830184611673565b92915050565b6000602082019050818103600083015261173381611682565b9050919050565b60006020820190508181036000830152611753816116b9565b9050919050565b600060208201905061176f60008301846116f0565b92915050565b60008115159050919050565b600073ffffffffffffffffffffffffffffffffffffffff82169050919050565b6000819050919050565b60006117b682611781565b9050919050565b600081905091905056fea265627a7a72305820d88f95b96f2c03b9751067febae6791fce1c22b2ddec5134626553e3bc0035066c6578706572696d656e74616cf50037",
  "source": "/*\n  Copyright 2018 Bit Factory, Inc.\n\n  This Source Code Form is subject to the terms of the Mozilla Public\n  License, v. 2.0. If a copy of the MPL was not distributed with this\n  file, You can obtain one at http://mozilla.org/MPL/2.0/.\n*/\n\npragma solidity ^0.5.0;\npragma experimental ABIEncoderV2;\n\nimport \"openzeppelin-solidity/contracts/math/SafeMath.sol\";\nimport \"openzeppelin-solidity/contracts/token/ERC20/ERC20.sol\";\nimport \"./Uniqys.sol\";\n\n/**\n * @title Stakable\n * @dev ERC20 stake logic\n */\ncontract Stakable is ERC20 {\n    using SafeMath for uint256;\n\n    Uniqys.ValidatorSet public validatorSet;\n    uint256 totalPower = 0;\n\n    event StakeUpdate(address indexed account, uint256 power);\n\n    constructor () public {\n    }\n\n    /**\n     * @dev Function to deposit tokens to stake\n     * @param _power The amount of tokens to deposit.\n     * @return A boolean that indicates if the operation was successful.\n     */\n    function stakeDeposit(uint256 _power) public returns (bool) {\n        _stakeDeposit(msg.sender, _power);\n        return true;\n    }\n\n    function _stakeDeposit(address _account, uint256 _power) internal {\n        require(balanceOf(_account) >= _power, \"not enough balance\");\n        _burn(_account, _power);\n        if (validatorSet.powers[_account] == 0) validatorSet.validators.push(_account);\n        validatorSet.powers[_account] = validatorSet.powers[_account].add(_power);\n        validatorSet.totalPower = validatorSet.totalPower.add(_power);\n        emit StakeUpdate(_account, validatorSet.powers[_account]);\n    }\n\n    /**\n     * @dev Function to withdraw tokens from stake\n     * @param _power The amount of tokens to withdraw.\n     * @return A boolean that indicates if the operation was successful.\n     */\n    function stakeWithdraw(uint256 _power) public returns (bool) {\n        _stakeWithdraw(msg.sender, _power);\n        return true;\n    }\n\n    function _stakeWithdraw(address _account, uint256 _power) internal {\n        require(validatorSet.powers[_account] >= _power, \"not enough stake\");\n        _mint(_account, _power);\n        validatorSet.powers[_account] = validatorSet.powers[_account].sub(_power);\n        if (validatorSet.powers[_account] == 0) {\n            /*\n            uint256 validatorCount = validatorSet.validators.length;\n            // TODO: fix slash logic\n            address[] storage _newValidators;\n            for (uint i = 0; i < validatorCount; i++) {\n                if (validatorSet.validators[i] != _account) _newValidators.push(validatorSet.validators[i]);\n            }\n            validatorSet.validators = _newValidators;\n            */\n        }\n        validatorSet.totalPower = validatorSet.totalPower.sub(_power);\n        emit StakeUpdate(_account, validatorSet.powers[_account]);\n    }\n}\n",
  "sourcePath": "/Users/t-yamazaki/work/UniqysKit/packages/event-provider/ethereum/contracts/Stakable.sol",
  "compiler": {
    "name": "solc",
    "version": "0.5.0+commit.1d4f565a.Emscripten.clang"
  },
  "schemaVersion": "3.0.2",
  "updatedAt": "2019-03-12T03:14:04.415Z",
  "devdoc": {
    "details": "ERC20 stake logic",
    "methods": {
      "allowance(address,address)": {
        "details": "Function to check the amount of tokens that an owner allowed to a spender.",
        "params": {
          "owner": "address The address which owns the funds.",
          "spender": "address The address which will spend the funds."
        },
        "return": "A uint256 specifying the amount of tokens still available for the spender."
      },
      "approve(address,uint256)": {
        "details": "Approve the passed address to spend the specified amount of tokens on behalf of msg.sender. Beware that changing an allowance with this method brings the risk that someone may use both the old and the new allowance by unfortunate transaction ordering. One possible solution to mitigate this race condition is to first reduce the spender's allowance to 0 and set the desired value afterwards: https://github.com/ethereum/EIPs/issues/20#issuecomment-263524729",
        "params": {
          "spender": "The address which will spend the funds.",
          "value": "The amount of tokens to be spent."
        }
      },
      "balanceOf(address)": {
        "details": "Gets the balance of the specified address.",
        "params": {
          "owner": "The address to query the balance of."
        },
        "return": "An uint256 representing the amount owned by the passed address."
      },
      "decreaseAllowance(address,uint256)": {
        "details": "Decrease the amount of tokens that an owner allowed to a spender. approve should be called when allowed_[_spender] == 0. To decrement allowed value is better to use this function to avoid 2 calls (and wait until the first transaction is mined) From MonolithDAO Token.sol Emits an Approval event.",
        "params": {
          "spender": "The address which will spend the funds.",
          "subtractedValue": "The amount of tokens to decrease the allowance by."
        }
      },
      "increaseAllowance(address,uint256)": {
        "details": "Increase the amount of tokens that an owner allowed to a spender. approve should be called when allowed_[_spender] == 0. To increment allowed value is better to use this function to avoid 2 calls (and wait until the first transaction is mined) From MonolithDAO Token.sol Emits an Approval event.",
        "params": {
          "addedValue": "The amount of tokens to increase the allowance by.",
          "spender": "The address which will spend the funds."
        }
      },
      "stakeDeposit(uint256)": {
        "details": "Function to deposit tokens to stake",
        "params": {
          "_power": "The amount of tokens to deposit."
        },
        "return": "A boolean that indicates if the operation was successful."
      },
      "stakeWithdraw(uint256)": {
        "details": "Function to withdraw tokens from stake",
        "params": {
          "_power": "The amount of tokens to withdraw."
        },
        "return": "A boolean that indicates if the operation was successful."
      },
      "totalSupply()": {
        "details": "Total number of tokens in existence"
      },
      "transfer(address,uint256)": {
        "details": "Transfer token for a specified address",
        "params": {
          "to": "The address to transfer to.",
          "value": "The amount to be transferred."
        }
      },
      "transferFrom(address,address,uint256)": {
        "details": "Transfer tokens from one address to another. Note that while this function emits an Approval event, this is not required as per the specification, and other compliant implementations may not emit the event.",
        "params": {
          "from": "address The address which you want to send tokens from",
          "to": "address The address which you want to transfer to",
          "value": "uint256 the amount of tokens to be transferred"
        }
      }
    },
    "title": "Stakable"
  },
  "userdoc": {
    "methods": {}
  }
}