{
  "contractName": "Uniqys",
  "abi": [
    {
      "constant": true,
      "inputs": [],
      "name": "PRECOMMIT_ID",
      "outputs": [
        {
          "name": "",
          "type": "uint8"
        }
      ],
      "payable": false,
      "stateMutability": "view",
      "type": "function"
    },
    {
      "constant": true,
      "inputs": [
        {
          "name": "_vset",
          "type": "Uniqys.ValidatorSet storage"
        },
        {
          "name": "_target",
          "type": "bytes32"
        },
        {
          "name": "_signatures",
          "type": "bytes[]"
        }
      ],
      "name": "isConsented",
      "outputs": [
        {
          "name": "",
          "type": "bool"
        }
      ],
      "payable": false,
      "stateMutability": "view",
      "type": "function"
    },
    {
      "constant": true,
      "inputs": [
        {
          "name": "_vset",
          "type": "Uniqys.ValidatorSet storage"
        },
        {
          "components": [
            {
              "name": "height",
              "type": "uint64"
            },
            {
              "name": "timestamp",
              "type": "uint64"
            },
            {
              "name": "lastBlockHash",
              "type": "bytes32"
            },
            {
              "name": "transactionRoot",
              "type": "bytes32"
            },
            {
              "name": "lastBlockConsensusRoot",
              "type": "bytes32"
            },
            {
              "name": "nextValidatorSetRoot",
              "type": "bytes32"
            },
            {
              "name": "appStateHash",
              "type": "bytes32"
            }
          ],
          "name": "_header",
          "type": "tuple"
        },
        {
          "name": "_consensusRound",
          "type": "uint32"
        },
        {
          "name": "_genesisHash",
          "type": "bytes32"
        },
        {
          "name": "_signatures",
          "type": "bytes[]"
        }
      ],
      "name": "verifyBlockHeader",
      "outputs": [],
      "payable": false,
      "stateMutability": "view",
      "type": "function"
    },
    {
      "constant": true,
      "inputs": [
        {
          "name": "_proof",
          "type": "bytes32[]"
        },
        {
          "name": "_root",
          "type": "bytes32"
        },
        {
          "name": "_txHash",
          "type": "bytes32"
        }
      ],
      "name": "verifyTransaction",
      "outputs": [],
      "payable": false,
      "stateMutability": "view",
      "type": "function"
    },
    {
      "constant": true,
      "inputs": [
        {
          "name": "_signature",
          "type": "bytes"
        }
      ],
      "name": "parseSignature",
      "outputs": [
        {
          "name": "r",
          "type": "bytes32"
        },
        {
          "name": "s",
          "type": "bytes32"
        },
        {
          "name": "v",
          "type": "uint8"
        }
      ],
      "payable": false,
      "stateMutability": "view",
      "type": "function"
    },
    {
      "constant": true,
      "inputs": [
        {
          "name": "_coreTransaction",
          "type": "bytes"
        }
      ],
      "name": "parseTransaction",
      "outputs": [
        {
          "components": [
            {
              "name": "signer",
              "type": "address"
            },
            {
              "name": "method",
              "type": "bytes"
            },
            {
              "name": "path",
              "type": "bytes"
            },
            {
              "name": "headers",
              "type": "bytes[2][]"
            },
            {
              "name": "body",
              "type": "bytes"
            }
          ],
          "name": "",
          "type": "tuple"
        }
      ],
      "payable": false,
      "stateMutability": "view",
      "type": "function"
    }
  ],
  "bytecode": "0x61157e610030600b82828239805160001a6073146000811461002057610022565bfe5b5030600052607381538281f3fe730000000000000000000000000000000000000000301460806040526004361061008f576000357c0100000000000000000000000000000000000000000000000000000000900463ffffffff16806302a4edb5146100945780636750d35b146100b057806389c15246146100e0578063936bde5d14610110578063cbc0ddec1461012e578063f596d10a1461014a575b600080fd5b6100ae60048036036100a99190810190610e11565b61017c565b005b6100ca60048036036100c59190810190610e78565b6101cd565b6040516100d79190611300565b60405180910390f35b6100fa60048036036100f59190810190610eb9565b610457565b604051610107919061124e565b60405180910390f35b61011861062c565b6040516101259190611322565b60405180910390f35b61014860048036036101439190810190610f20565b610631565b005b610164600480360361015f9190810190610e78565b61082d565b60405161017393929190611269565b60405180910390f35b61018783838361087b565b15156101c8576040517f08c379a00000000000000000000000000000000000000000000000000000000081526004016101bf906112c0565b60405180910390fd5b505050565b6101d5610afd565b6000806000806001905060606101eb8783610938565b80935081925050506000915060606102158363ffffffff166041846109929092919063ffffffff16565b905060418301925060006102438463ffffffff168563ffffffff16855103856109929092919063ffffffff16565b8051906020012090506102558261082d565b80975081985082995050505060028560ff16101561027457601b850194505b6000600182878a8a60405160008152602001604052604051808581526020018460ff1660ff1681526020018381526020018281526020019450505050506020604051602081039080840390855afa1580156102d3573d6000803e3d6000fd5b50505060206040510351905060088501945060606102f18587610938565b809750819250505060606103058688610938565b809850819250505060006103288863ffffffff1688610a2090919063ffffffff16565b905060048801975060608163ffffffff1660405190808252806020026020018201604052801561037257816020015b61035f610b43565b8152602001906001900390816103575790505b50905060008090505b8263ffffffff168110156103f05760606103958a8c610938565b809c50819250505060606103a98b8d610938565b809d50819250505060408051908101604052808381526020018281525084848151811015156103d457fe5b906020019060200201819052505050808060010191505061037b565b5060606103fd898b610938565b809b50819250505060a0604051908101604052808773ffffffffffffffffffffffffffffffffffffffff168152602001868152602001858152602001838152602001828152509d5050505050505050505050505050919050565b6000806000905060008090505b83518110156105e2576000806000610492878581518110151561048357fe5b9060200190602002015161082d565b809350819450829550505050600060018983868660405160008152602001604052604051808581526020018460ff1660ff1681526020018381526020018281526020019450505050506020604051602081039080840390855afa1580156104fd573d6000803e3d6000fd5b505050602060405103519050600073ffffffffffffffffffffffffffffffffffffffff168173ffffffffffffffffffffffffffffffffffffffff161415151561057b576040517f08c379a0000000000000000000000000000000000000000000000000000000008152600401610572906112e0565b60405180910390fd5b6105cf8a60000160008373ffffffffffffffffffffffffffffffffffffffff1673ffffffffffffffffffffffffffffffffffffffff1681526020019081526020016000205487610a4a90919063ffffffff16565b9550505050508080600101915050610464565b506105fb60028660020154610a6b90919063ffffffff16565b61060f600383610a6b90919063ffffffff16565b111561061f576001915050610625565b60009150505b9392505050565b600281565b6000846000015185602001518660400151876060015188608001518960a001518a60c00151604051602001808867ffffffffffffffff1667ffffffffffffffff1678010000000000000000000000000000000000000000000000000281526008018767ffffffffffffffff1667ffffffffffffffff167801000000000000000000000000000000000000000000000000028152600801868152602001858152602001848152602001838152602001828152602001975050505050505050604051602081830303815290604052805190602001209050600083600287600001518785604051602001808681526020018560ff1660ff167f01000000000000000000000000000000000000000000000000000000000000000281526001018467ffffffffffffffff1667ffffffffffffffff1678010000000000000000000000000000000000000000000000000281526008018363ffffffff1663ffffffff167c0100000000000000000000000000000000000000000000000000000000028152600401828152602001955050505050506040516020818303038152906040528051906020012090506107e3878285610457565b1515610824576040517f08c379a000000000000000000000000000000000000000000000000000000000815260040161081b906112a0565b60405180910390fd5b50505050505050565b6000806000610846600085610aa990919063ffffffff16565b925061085c602085610aa990919063ffffffff16565b9150610872604085610ad390919063ffffffff16565b90509193909250565b60008082905060008090505b855181101561092a57600086828151811015156108a057fe5b906020019060200201519050808310156108ea578281604051602001808381526020018281526020019250505060405160208183030381529060405280519060200120925061091c565b808360405160200180838152602001828152602001925050506040516020818303038152906040528051906020012092505b508080600101915050610887565b508381149150509392505050565b60606000829050600061095a8263ffffffff1686610a2090919063ffffffff16565b90506004820191506109838263ffffffff168263ffffffff16876109929092919063ffffffff16565b92508082019150509250929050565b60608183018451101515156109a657600080fd5b60608215600081146109c357604051915060208201604052610a14565b6040519150601f8416801560200281840101858101878315602002848b0101015b81831015610a0157805183526020830192506020810190506109e4565b50868552601f19601f8301166040525050505b50809150509392505050565b600060048201835110151515610a3557600080fd5b60008260048501015190508091505092915050565b6000808284019050838110151515610a6157600080fd5b8091505092915050565b600080831415610a7e5760009050610aa3565b60008284029050828482811515610a9157fe5b04141515610a9e57600080fd5b809150505b92915050565b600060208201835110151515610abe57600080fd5b60008260208501015190508091505092915050565b600060018201835110151515610ae857600080fd5b60008260018501015190508091505092915050565b60a060405190810160405280600073ffffffffffffffffffffffffffffffffffffffff168152602001606081526020016060815260200160608152602001606081525090565b60408051908101604052806002905b6060815260200190600190039081610b525790505090565b600082601f8301121515610b7d57600080fd5b8135610b90610b8b8261136a565b61133d565b91508181835260208401935060208101905083856020840282011115610bb557600080fd5b60005b83811015610be55781610bcb8882610c65565b845260208401935060208301925050600181019050610bb8565b5050505092915050565b600082601f8301121515610c0257600080fd5b8135610c15610c1082611392565b61133d565b9150818183526020840193506020810190508360005b83811015610c5b5781358601610c418882610c79565b845260208401935060208301925050600181019050610c2b565b5050505092915050565b6000610c7182356114b9565b905092915050565b600082601f8301121515610c8c57600080fd5b8135610c9f610c9a826113ba565b61133d565b91508082526020830160208301858383011115610cbb57600080fd5b610cc68382846114f1565b50505092915050565b600082601f8301121515610ce257600080fd5b8135610cf5610cf0826113e6565b61133d565b91508082526020830160208301858383011115610d1157600080fd5b610d1c8382846114f1565b50505092915050565b600060e08284031215610d3757600080fd5b610d4160e061133d565b90506000610d5184828501610dfd565b6000830152506020610d6584828501610dfd565b6020830152506040610d7984828501610c65565b6040830152506060610d8d84828501610c65565b6060830152506080610da184828501610c65565b60808301525060a0610db584828501610c65565b60a08301525060c0610dc984828501610c65565b60c08301525092915050565b6000610de182356114c3565b905092915050565b6000610df582356114cd565b905092915050565b6000610e0982356114dd565b905092915050565b600080600060608486031215610e2657600080fd5b600084013567ffffffffffffffff811115610e4057600080fd5b610e4c86828701610b6a565b9350506020610e5d86828701610c65565b9250506040610e6e86828701610c65565b9150509250925092565b600060208284031215610e8a57600080fd5b600082013567ffffffffffffffff811115610ea457600080fd5b610eb084828501610ccf565b91505092915050565b600080600060608486031215610ece57600080fd5b6000610edc86828701610dd5565b9350506020610eed86828701610c65565b925050604084013567ffffffffffffffff811115610f0a57600080fd5b610f1686828701610bef565b9150509250925092565b60008060008060006101608688031215610f3957600080fd5b6000610f4788828901610dd5565b9550506020610f5888828901610d25565b945050610100610f6a88828901610de9565b935050610120610f7c88828901610c65565b92505061014086013567ffffffffffffffff811115610f9a57600080fd5b610fa688828901610bef565b9150509295509295909350565b610fbc81611464565b82525050565b6000610fcd82611429565b80845260208401935083602082028501610fe685611412565b60005b8481101561101f578383038852611001838351611030565b925061100c8261144a565b9150602088019750600181019050610fe9565b508196508694505050505092915050565b600061103b82611434565b8360208202850161104b8561141f565b60005b848110156110845783830388526110668383516110b3565b925061107182611457565b915060208801975060018101905061104e565b508196508694505050505092915050565b61109e81611476565b82525050565b6110ad81611482565b82525050565b60006110be8261143f565b8084526110d2816020860160208601611500565b6110db81611533565b602085010191505092915050565b6000601f82527f436f6e73656e73757320636f756c64206e6f74206265207665726966696564006020830152604082019050919050565b6000603082527f436f756c64206e6f742070726f7665207472616e73616374696f6e206578697360208301527f74656e63652066726f6d2070726f6f66000000000000000000000000000000006040830152606082019050919050565b6000600782527f696e76616c6964000000000000000000000000000000000000000000000000006020830152604082019050919050565b600060a0830160008301516111cc6000860182610fb3565b50602083015184820360208601526111e482826110b3565b915050604083015184820360408601526111fe82826110b3565b915050606083015184820360608601526112188282610fc2565b9150506080830151848203608086015261123282826110b3565b9150508091505092915050565b611248816114ac565b82525050565b60006020820190506112636000830184611095565b92915050565b600060608201905061127e60008301866110a4565b61128b60208301856110a4565b611298604083018461123f565b949350505050565b600060208201905081810360008301526112b9816110e9565b9050919050565b600060208201905081810360008301526112d981611120565b9050919050565b600060208201905081810360008301526112f98161117d565b9050919050565b6000602082019050818103600083015261131a81846111b4565b905092915050565b6000602082019050611337600083018461123f565b92915050565b6000604051905081810181811067ffffffffffffffff8211171561136057600080fd5b8060405250919050565b600067ffffffffffffffff82111561138157600080fd5b602082029050602081019050919050565b600067ffffffffffffffff8211156113a957600080fd5b602082029050602081019050919050565b600067ffffffffffffffff8211156113d157600080fd5b601f19601f8301169050602081019050919050565b600067ffffffffffffffff8211156113fd57600080fd5b601f19601f8301169050602081019050919050565b6000602082019050919050565b6000819050919050565b600081519050919050565b600060029050919050565b600081519050919050565b6000602082019050919050565b6000602082019050919050565b600061146f8261148c565b9050919050565b60008115159050919050565b6000819050919050565b600073ffffffffffffffffffffffffffffffffffffffff82169050919050565b600060ff82169050919050565b6000819050919050565b6000819050919050565b600063ffffffff82169050919050565b600067ffffffffffffffff82169050919050565b82818337600083830152505050565b60005b8381101561151e578082015181840152602081019050611503565b8381111561152d576000848401525b50505050565b6000601f19601f830116905091905056fea265627a7a723058204e168e4e56d090d70acb7393df1ea2ec950e189ccff8490cf51cecfa3e099a166c6578706572696d656e74616cf50037",
  "source": "pragma solidity ^0.5.0;\npragma experimental ABIEncoderV2;\n\nimport \"openzeppelin-solidity/contracts/math/SafeMath.sol\";\nimport \"solidity-bytes-utils/contracts/BytesLib.sol\";\nimport \"openzeppelin-solidity/contracts/cryptography/MerkleProof.sol\";\n\nlibrary Uniqys {\n    using SafeMath for uint256;\n    using BytesLib for bytes;\n\n    uint8 constant public PRECOMMIT_ID = 2;\n\n    struct ValidatorSet {\n        mapping (address => uint256) powers;\n        address[] validators;\n        uint256 totalPower;\n    }\n\n    struct BlockHeader {\n        uint64 height;\n        uint64 timestamp;\n        bytes32 lastBlockHash;\n        bytes32 transactionRoot;\n        bytes32 lastBlockConsensusRoot;\n        bytes32 nextValidatorSetRoot;\n        bytes32 appStateHash;\n    }\n\n    struct Transaction {\n        address signer;\n        bytes method;\n        bytes path;\n        bytes[2][] headers;\n        bytes body;\n    }\n\n    function isConsented(\n        ValidatorSet storage _vset,\n        bytes32 _target,\n        bytes[] memory _signatures\n    )\n        public\n        view\n        returns (bool)\n    {\n        uint256 _sum = 0;\n        for (uint i = 0; i < _signatures.length; i++) {\n            bytes32 _r;\n            bytes32 _s;\n            uint8 _v;\n            (_r, _s, _v) = parseSignature(_signatures[i]);\n            address _signer = ecrecover(_target, _v, _r, _s);\n            require(_signer != address(0), \"invalid\");\n            _sum = _sum.add(_vset.powers[_signer]);\n        }\n        if (_sum.mul(3) > _vset.totalPower.mul(2)) return true;\n        return false;\n    }\n\n    function verifyBlockHeader(\n        ValidatorSet storage _vset,\n        BlockHeader memory _header,\n        uint32 _consensusRound,\n        bytes32 _genesisHash,\n        bytes[] memory _signatures\n    )\n        public\n        view\n    {\n        bytes32 _blockHash = keccak256(\n            abi.encodePacked(\n                _header.height, _header.timestamp,\n                _header.lastBlockHash, _header.transactionRoot,_header.lastBlockConsensusRoot,\n                _header.nextValidatorSetRoot, _header.appStateHash\n            )\n        );\n        bytes32 _digest = keccak256(\n            abi.encodePacked(\n                _genesisHash, PRECOMMIT_ID, _header.height, _consensusRound, _blockHash\n            )\n        );\n        require(isConsented(_vset, _digest, _signatures), \"Consensus could not be verified\");\n    }\n\n    function verifyTransaction(\n        bytes32[] memory _proof,\n        bytes32 _root,\n        bytes32 _txHash\n    )\n        public\n        view\n    {\n        require(\n            MerkleProof.verify(_proof, _root, _txHash),\n            \"Could not prove transaction existence from proof\"\n        );\n    }\n\n    function parseSignature(bytes memory _signature) public view returns (bytes32 r, bytes32 s, uint8 v) {\n        r = _signature.toBytes32(0);\n        s = _signature.toBytes32(32);\n        v = _signature.toUint8(64);\n    }\n\n    function parseTransaction(bytes memory _coreTransaction) public view returns (Transaction memory) {\n        bytes32 _r;\n        bytes32 _s;\n        uint8 _v;\n\n        // Transaction meta\n        uint32 i = 1; // coreTx type UInt8\n\n        // SizedBuffer\n        bytes memory _transaction;\n        (_transaction, i) = _sliceSizedBuffer(_coreTransaction, i);\n\n        // reset\n        i = 0;\n\n        bytes memory _signature = _transaction.slice(i, 65);\n        i += 65;\n        bytes32 _digest = keccak256(_transaction.slice(i, _transaction.length - i));\n        (_r, _s, _v) = parseSignature(_signature);\n        // XXXX:\n        if (_v < 2) _v += 27;\n        address _signer = ecrecover(_digest, _v, _r, _s);\n\n        // nonce\n        i += 8;\n\n        // Transaction body\n        bytes memory _method;\n        (_method, i) = _sliceSizedBuffer(_transaction, i);\n        bytes memory _path;\n        (_path, i) = _sliceSizedBuffer(_transaction, i);\n        uint32 _headerNum = _transaction.toUint32(i);\n        i += 4;\n\n        bytes[2][] memory _header = new bytes[2][](_headerNum);\n        for (uint j = 0; j < _headerNum; j++) {\n            bytes memory _headerKey;\n            (_headerKey, i) = _sliceSizedBuffer(_transaction, i);\n            bytes memory _headerValue;\n            (_headerValue, i) = _sliceSizedBuffer(_transaction, i);\n            _header[j] = [_headerKey, _headerValue];\n        }\n        bytes memory _body;\n        (_body, i) = _sliceSizedBuffer(_transaction, i);\n\n        return Transaction(_signer, _method, _path, _header, _body);\n    }\n\n    function addressToString(address x) internal pure returns (string memory) {\n        bytes memory b = new bytes(20);\n        for (uint i = 0; i < 20; i++)\n            b[i] = byte(uint8(uint(x) / (2**(8*(19 - i)))));\n        return string(b);\n    }\n\n    function char(byte b) internal pure returns (byte c) {\n        if (uint8(b) < 10) return byte(uint8(b) + 0x30);\n        else return byte(uint8(b) + 0x57);\n    }\n    function bytesToBytes32(bytes memory b, uint offset) private pure returns (bytes32 out) {\n\n        for (uint i = 0; i < 32; i++) {\n            out |= bytes32(b[offset + i] & 0xFF) >> (i * 8);\n        }\n    }\n    function bytes32string(bytes32 b32) internal pure returns (string memory out) {\n        bytes memory s = new bytes(64);\n\n        for (uint i = 0; i < 32; i++) {\n            byte b = byte(b32[i]);\n            byte hi = byte(uint8(b) / 16);\n            byte lo = byte(uint8(b) - 16 * uint8(hi));\n            s[i*2] = char(hi);\n            s[i*2+1] = char(lo);\n        }\n\n        out = string(s);\n    }\n\n    function convertIntToString(uint256 _number) internal pure returns (string memory) {\n        uint256 _tmpN = _number;\n\n        if (_tmpN == 0) {\n            return \"0\";\n        }\n\n        uint256 j = _tmpN;\n        uint256 length = 0;\n\n        while (j != 0){\n            length++;\n            j /= 10;\n        }\n\n        bytes memory bstr = new bytes(length);\n\n        uint256 k = length - 1;\n\n        while (_tmpN != 0) {\n            bstr[k--] = byte(uint8(48 + _tmpN % 10));\n            _tmpN /= 10;\n        }\n\n        return string(bstr);\n\n    }\n\n    function _sliceSizedBuffer(bytes memory _buf, uint32 _from) private view returns (bytes memory res, uint32 next) {\n        next = _from;\n\n        uint32 _size = _buf.toUint32(next);\n        next += 4;\n\n        res = _buf.slice(next, _size);\n        next += _size;\n    }\n}\n",
  "sourcePath": "/Users/t-yamazaki/work/UniqysKit/packages/event-provider/ethereum/contracts/Uniqys.sol",
  "compiler": {
    "name": "solc",
    "version": "0.5.0+commit.1d4f565a.Emscripten.clang"
  },
  "schemaVersion": "3.0.2",
  "updatedAt": "2019-03-12T03:14:04.416Z",
  "devdoc": {
    "methods": {}
  },
  "userdoc": {
    "methods": {}
  }
}