{
  "contractName": "Withdrawable",
  "abi": [
    {
      "constant": false,
      "inputs": [
        {
          "name": "spender",
          "type": "address"
        },
        {
          "name": "value",
          "type": "uint256"
        }
      ],
      "name": "approve",
      "outputs": [
        {
          "name": "",
          "type": "bool"
        }
      ],
      "payable": false,
      "stateMutability": "nonpayable",
      "type": "function"
    },
    {
      "constant": true,
      "inputs": [],
      "name": "totalSupply",
      "outputs": [
        {
          "name": "",
          "type": "uint256"
        }
      ],
      "payable": false,
      "stateMutability": "view",
      "type": "function"
    },
    {
      "constant": false,
      "inputs": [
        {
          "name": "from",
          "type": "address"
        },
        {
          "name": "to",
          "type": "address"
        },
        {
          "name": "value",
          "type": "uint256"
        }
      ],
      "name": "transferFrom",
      "outputs": [
        {
          "name": "",
          "type": "bool"
        }
      ],
      "payable": false,
      "stateMutability": "nonpayable",
      "type": "function"
    },
    {
      "constant": false,
      "inputs": [
        {
          "name": "spender",
          "type": "address"
        },
        {
          "name": "addedValue",
          "type": "uint256"
        }
      ],
      "name": "increaseAllowance",
      "outputs": [
        {
          "name": "",
          "type": "bool"
        }
      ],
      "payable": false,
      "stateMutability": "nonpayable",
      "type": "function"
    },
    {
      "constant": true,
      "inputs": [
        {
          "name": "",
          "type": "bytes32"
        }
      ],
      "name": "usedTx",
      "outputs": [
        {
          "name": "",
          "type": "bool"
        }
      ],
      "payable": false,
      "stateMutability": "view",
      "type": "function"
    },
    {
      "constant": true,
      "inputs": [
        {
          "name": "owner",
          "type": "address"
        }
      ],
      "name": "balanceOf",
      "outputs": [
        {
          "name": "",
          "type": "uint256"
        }
      ],
      "payable": false,
      "stateMutability": "view",
      "type": "function"
    },
    {
      "constant": true,
      "inputs": [],
      "name": "validatorSet",
      "outputs": [
        {
          "name": "totalPower",
          "type": "uint256"
        }
      ],
      "payable": false,
      "stateMutability": "view",
      "type": "function"
    },
    {
      "constant": true,
      "inputs": [],
      "name": "genesisHash",
      "outputs": [
        {
          "name": "",
          "type": "bytes32"
        }
      ],
      "payable": false,
      "stateMutability": "view",
      "type": "function"
    },
    {
      "constant": false,
      "inputs": [
        {
          "name": "spender",
          "type": "address"
        },
        {
          "name": "subtractedValue",
          "type": "uint256"
        }
      ],
      "name": "decreaseAllowance",
      "outputs": [
        {
          "name": "",
          "type": "bool"
        }
      ],
      "payable": false,
      "stateMutability": "nonpayable",
      "type": "function"
    },
    {
      "constant": false,
      "inputs": [
        {
          "name": "to",
          "type": "address"
        },
        {
          "name": "value",
          "type": "uint256"
        }
      ],
      "name": "transfer",
      "outputs": [
        {
          "name": "",
          "type": "bool"
        }
      ],
      "payable": false,
      "stateMutability": "nonpayable",
      "type": "function"
    },
    {
      "constant": true,
      "inputs": [
        {
          "name": "owner",
          "type": "address"
        },
        {
          "name": "spender",
          "type": "address"
        }
      ],
      "name": "allowance",
      "outputs": [
        {
          "name": "",
          "type": "uint256"
        }
      ],
      "payable": false,
      "stateMutability": "view",
      "type": "function"
    },
    {
      "inputs": [
        {
          "name": "_genesisHash",
          "type": "bytes32"
        }
      ],
      "payable": false,
      "stateMutability": "nonpayable",
      "type": "constructor"
    },
    {
      "anonymous": false,
      "inputs": [
        {
          "indexed": true,
          "name": "account",
          "type": "address"
        },
        {
          "indexed": false,
          "name": "value",
          "type": "uint256"
        }
      ],
      "name": "Withdraw",
      "type": "event"
    },
    {
      "anonymous": false,
      "inputs": [
        {
          "indexed": true,
          "name": "from",
          "type": "address"
        },
        {
          "indexed": true,
          "name": "to",
          "type": "address"
        },
        {
          "indexed": false,
          "name": "value",
          "type": "uint256"
        }
      ],
      "name": "Transfer",
      "type": "event"
    },
    {
      "anonymous": false,
      "inputs": [
        {
          "indexed": true,
          "name": "owner",
          "type": "address"
        },
        {
          "indexed": true,
          "name": "spender",
          "type": "address"
        },
        {
          "indexed": false,
          "name": "value",
          "type": "uint256"
        }
      ],
      "name": "Approval",
      "type": "event"
    },
    {
      "constant": false,
      "inputs": [
        {
          "name": "_transaction",
          "type": "bytes"
        },
        {
          "name": "_transactionProof",
          "type": "bytes32[]"
        },
        {
          "components": [
            {
              "name": "height",
              "type": "uint64"
            },
            {
              "name": "timestamp",
              "type": "uint64"
            },
            {
              "name": "lastBlockHash",
              "type": "bytes32"
            },
            {
              "name": "transactionRoot",
              "type": "bytes32"
            },
            {
              "name": "lastBlockConsensusRoot",
              "type": "bytes32"
            },
            {
              "name": "nextValidatorSetRoot",
              "type": "bytes32"
            },
            {
              "name": "appStateHash",
              "type": "bytes32"
            }
          ],
          "name": "_header",
          "type": "tuple"
        },
        {
          "name": "_consensusRound",
          "type": "uint32"
        },
        {
          "name": "_signatures",
          "type": "bytes[]"
        }
      ],
      "name": "withdraw",
      "outputs": [
        {
          "name": "",
          "type": "bool"
        }
      ],
      "payable": false,
      "stateMutability": "nonpayable",
      "type": "function"
    }
  ],
  "bytecode": "0x60806040526040805190810160405280600981526020017f57697468647261773a000000000000000000000000000000000000000000000081525060039080519060200190620000519291906200008f565b503480156200005f57600080fd5b5060405160208062002650833981018060405262000081919081019062000154565b80600581905550506200018a565b828054600181600116156101000203166002900490600052602060002090601f016020900481019282601f10620000d257805160ff191683800117855562000103565b8280016001018555821562000103579182015b8281111562000102578251825591602001919060010190620000e5565b5b50905062000112919062000116565b5090565b6200013b91905b80821115620001375760008160009055506001016200011d565b5090565b90565b60006200014c825162000180565b905092915050565b6000602082840312156200016757600080fd5b600062000177848285016200013e565b91505092915050565b6000819050919050565b6124b6806200019a6000396000f3fe6080604052600436106100ba576000357c0100000000000000000000000000000000000000000000000000000000900463ffffffff168063095ea7b3146100bf57806318160ddd146100fc57806323b872dd1461012757806339509351146101645780635fbf3e4d146101a157806370a08231146101de5780639426e2261461021b57806394391a6d14610246578063a457c2d714610271578063a9059cbb146102ae578063dd62ed3e146102eb578063f1a0c36714610328575b600080fd5b3480156100cb57600080fd5b506100e660048036036100e19190810190611c5c565b610365565b6040516100f391906120cb565b60405180910390f35b34801561010857600080fd5b50610111610492565b60405161011e91906121e1565b60405180910390f35b34801561013357600080fd5b5061014e60048036036101499190810190611c0d565b61049c565b60405161015b91906120cb565b60405180910390f35b34801561017057600080fd5b5061018b60048036036101869190810190611c5c565b6106a4565b60405161019891906120cb565b60405180910390f35b3480156101ad57600080fd5b506101c860048036036101c39190810190611c98565b6108db565b6040516101d591906120cb565b60405180910390f35b3480156101ea57600080fd5b5061020560048036036102009190810190611ba8565b6108fb565b60405161021291906121e1565b60405180910390f35b34801561022757600080fd5b50610230610943565b60405161023d91906121e1565b60405180910390f35b34801561025257600080fd5b5061025b61094f565b60405161026891906120e6565b60405180910390f35b34801561027d57600080fd5b5061029860048036036102939190810190611c5c565b610955565b6040516102a591906120cb565b60405180910390f35b3480156102ba57600080fd5b506102d560048036036102d09190810190611c5c565b610b8c565b6040516102e291906120cb565b60405180910390f35b3480156102f757600080fd5b50610312600480360361030d9190810190611bd1565b610ba3565b60405161031f91906121e1565b60405180910390f35b34801561033457600080fd5b5061034f600480360361034a9190810190611cc1565b610c2a565b60405161035c91906120cb565b60405180910390f35b60008073ffffffffffffffffffffffffffffffffffffffff168373ffffffffffffffffffffffffffffffffffffffff16141515156103a257600080fd5b81600160003373ffffffffffffffffffffffffffffffffffffffff1673ffffffffffffffffffffffffffffffffffffffff16815260200190815260200160002060008573ffffffffffffffffffffffffffffffffffffffff1673ffffffffffffffffffffffffffffffffffffffff168152602001908152602001600020819055508273ffffffffffffffffffffffffffffffffffffffff163373ffffffffffffffffffffffffffffffffffffffff167f8c5be1e5ebec7d5bd14f71427d1e84f3dd0314c0f7b2291e5b200ac8c7c3b9258460405161048091906121e1565b60405180910390a36001905092915050565b6000600254905090565b600061052d82600160008773ffffffffffffffffffffffffffffffffffffffff1673ffffffffffffffffffffffffffffffffffffffff16815260200190815260200160002060003373ffffffffffffffffffffffffffffffffffffffff1673ffffffffffffffffffffffffffffffffffffffff16815260200190815260200160002054610e3c90919063ffffffff16565b600160008673ffffffffffffffffffffffffffffffffffffffff1673ffffffffffffffffffffffffffffffffffffffff16815260200190815260200160002060003373ffffffffffffffffffffffffffffffffffffffff1673ffffffffffffffffffffffffffffffffffffffff168152602001908152602001600020819055506105b8848484610e5e565b3373ffffffffffffffffffffffffffffffffffffffff168473ffffffffffffffffffffffffffffffffffffffff167f8c5be1e5ebec7d5bd14f71427d1e84f3dd0314c0f7b2291e5b200ac8c7c3b925600160008873ffffffffffffffffffffffffffffffffffffffff1673ffffffffffffffffffffffffffffffffffffffff16815260200190815260200160002060003373ffffffffffffffffffffffffffffffffffffffff1673ffffffffffffffffffffffffffffffffffffffff1681526020019081526020016000205460405161069191906121e1565b60405180910390a3600190509392505050565b60008073ffffffffffffffffffffffffffffffffffffffff168373ffffffffffffffffffffffffffffffffffffffff16141515156106e157600080fd5b61077082600160003373ffffffffffffffffffffffffffffffffffffffff1673ffffffffffffffffffffffffffffffffffffffff16815260200190815260200160002060008673ffffffffffffffffffffffffffffffffffffffff1673ffffffffffffffffffffffffffffffffffffffff1681526020019081526020016000205461102a90919063ffffffff16565b600160003373ffffffffffffffffffffffffffffffffffffffff1673ffffffffffffffffffffffffffffffffffffffff16815260200190815260200160002060008573ffffffffffffffffffffffffffffffffffffffff1673ffffffffffffffffffffffffffffffffffffffff168152602001908152602001600020819055508273ffffffffffffffffffffffffffffffffffffffff163373ffffffffffffffffffffffffffffffffffffffff167f8c5be1e5ebec7d5bd14f71427d1e84f3dd0314c0f7b2291e5b200ac8c7c3b925600160003373ffffffffffffffffffffffffffffffffffffffff1673ffffffffffffffffffffffffffffffffffffffff16815260200190815260200160002060008773ffffffffffffffffffffffffffffffffffffffff1673ffffffffffffffffffffffffffffffffffffffff168152602001908152602001600020546040516108c991906121e1565b60405180910390a36001905092915050565b60046020528060005260406000206000915054906101000a900460ff1681565b60008060008373ffffffffffffffffffffffffffffffffffffffff1673ffffffffffffffffffffffffffffffffffffffff168152602001908152602001600020549050919050565b60068060020154905081565b60055481565b60008073ffffffffffffffffffffffffffffffffffffffff168373ffffffffffffffffffffffffffffffffffffffff161415151561099257600080fd5b610a2182600160003373ffffffffffffffffffffffffffffffffffffffff1673ffffffffffffffffffffffffffffffffffffffff16815260200190815260200160002060008673ffffffffffffffffffffffffffffffffffffffff1673ffffffffffffffffffffffffffffffffffffffff16815260200190815260200160002054610e3c90919063ffffffff16565b600160003373ffffffffffffffffffffffffffffffffffffffff1673ffffffffffffffffffffffffffffffffffffffff16815260200190815260200160002060008573ffffffffffffffffffffffffffffffffffffffff1673ffffffffffffffffffffffffffffffffffffffff168152602001908152602001600020819055508273ffffffffffffffffffffffffffffffffffffffff163373ffffffffffffffffffffffffffffffffffffffff167f8c5be1e5ebec7d5bd14f71427d1e84f3dd0314c0f7b2291e5b200ac8c7c3b925600160003373ffffffffffffffffffffffffffffffffffffffff1673ffffffffffffffffffffffffffffffffffffffff16815260200190815260200160002060008773ffffffffffffffffffffffffffffffffffffffff1673ffffffffffffffffffffffffffffffffffffffff16815260200190815260200160002054604051610b7a91906121e1565b60405180910390a36001905092915050565b6000610b99338484610e5e565b6001905092915050565b6000600160008473ffffffffffffffffffffffffffffffffffffffff1673ffffffffffffffffffffffffffffffffffffffff16815260200190815260200160002060008373ffffffffffffffffffffffffffffffffffffffff1673ffffffffffffffffffffffffffffffffffffffff16815260200190815260200160002054905092915050565b600080868051906020012090506000610c428861104b565b9050600081111515610c89576040517f08c379a0000000000000000000000000000000000000000000000000000000008152600401610c8090612163565b60405180910390fd5b73__Uniqys________________________________63cbc0ddec60068888600554896040518663ffffffff167c0100000000000000000000000000000000000000000000000000000000028152600401610ce7959493929190612183565b60006040518083038186803b158015610cff57600080fd5b505af4158015610d13573d6000803e3d6000fd5b5050505073__Uniqys________________________________6302a4edb5888860c001518b805190602001206040518463ffffffff167c0100000000000000000000000000000000000000000000000000000000028152600401610d799392919061208d565b60006040518083038186803b158015610d9157600080fd5b505af4158015610da5573d6000803e3d6000fd5b50505050610db333826112ec565b60016004600084815260200190815260200160002060006101000a81548160ff0219169083151502179055503373ffffffffffffffffffffffffffffffffffffffff167f884edad9ce6fa2440d8a54cc123490eb96d2768479d49ff9c7366125a942436482604051610e2591906121e1565b60405180910390a260019250505095945050505050565b6000828211151515610e4d57600080fd5b600082840390508091505092915050565b600073ffffffffffffffffffffffffffffffffffffffff168273ffffffffffffffffffffffffffffffffffffffff1614151515610e9a57600080fd5b610eeb816000808673ffffffffffffffffffffffffffffffffffffffff1673ffffffffffffffffffffffffffffffffffffffff16815260200190815260200160002054610e3c90919063ffffffff16565b6000808573ffffffffffffffffffffffffffffffffffffffff1673ffffffffffffffffffffffffffffffffffffffff16815260200190815260200160002081905550610f7e816000808573ffffffffffffffffffffffffffffffffffffffff1673ffffffffffffffffffffffffffffffffffffffff1681526020019081526020016000205461102a90919063ffffffff16565b6000808473ffffffffffffffffffffffffffffffffffffffff1673ffffffffffffffffffffffffffffffffffffffff168152602001908152602001600020819055508173ffffffffffffffffffffffffffffffffffffffff168373ffffffffffffffffffffffffffffffffffffffff167fddf252ad1be2c89b69c2b068fc378daa952ba7f163c4a11628f55a4df523b3ef8360405161101d91906121e1565b60405180910390a3505050565b600080828401905083811015151561104157600080fd5b8091505092915050565b6000611055611678565b73__Uniqys________________________________636750d35b846040518263ffffffff167c01000000000000000000000000000000000000000000000000000000000281526004016110a89190612101565b60006040518083038186803b1580156110c057600080fd5b505af41580156110d4573d6000803e3d6000fd5b505050506040513d6000823e3d601f19601f820116820180604052506110fd9190810190611d83565b90503373ffffffffffffffffffffffffffffffffffffffff16816000015173ffffffffffffffffffffffffffffffffffffffff16141515611173576040517f08c379a000000000000000000000000000000000000000000000000000000000815260040161116a90612123565b60405180910390fd5b61124f6111a66000600380546001816001161561010002031660029004905084608001516114409092919063ffffffff16565b60038054600181600116156101000203166002900480601f01602080910402602001604051908101604052809291908181526020018280546001816001161561010002031660029004801561123c5780601f106112115761010080835404028352916020019161123c565b820191906000526020600020905b81548152906001019060200180831161121f57829003601f168201915b50505050506114ce90919063ffffffff16565b1515611290576040517f08c379a000000000000000000000000000000000000000000000000000000000815260040161128790612163565b60405180910390fd5b6112e46112df600380546001816001161561010002031660029004905060038054600181600116156101000203166002900490508460800151510384608001516114409092919063ffffffff16565b61153d565b915050919050565b600073ffffffffffffffffffffffffffffffffffffffff168273ffffffffffffffffffffffffffffffffffffffff161415151561132857600080fd5b61133d8160025461102a90919063ffffffff16565b600281905550611394816000808573ffffffffffffffffffffffffffffffffffffffff1673ffffffffffffffffffffffffffffffffffffffff1681526020019081526020016000205461102a90919063ffffffff16565b6000808473ffffffffffffffffffffffffffffffffffffffff1673ffffffffffffffffffffffffffffffffffffffff168152602001908152602001600020819055508173ffffffffffffffffffffffffffffffffffffffff16600073ffffffffffffffffffffffffffffffffffffffff167fddf252ad1be2c89b69c2b068fc378daa952ba7f163c4a11628f55a4df523b3ef8360405161143491906121e1565b60405180910390a35050565b606081830184511015151561145457600080fd5b6060821560008114611471576040519150602082016040526114c2565b6040519150601f8416801560200281840101858101878315602002848b0101015b818310156114af5780518352602083019250602081019050611492565b50868552601f19601f8301166040525050505b50809150509392505050565b60008060019050835183518114600181146114ec5760009250611531565b600160208701838101602088015b60028483851001141561152c578051835114151561151b5760009650600093505b6020830192506020810190506114fa565b505050505b50508091505092915050565b600080905060008090505b825181101561160a576000611566828561161090919063ffffffff16565b63ffffffff16905060308110158015611580575060398111155b15156115c1576040517f08c379a00000000000000000000000000000000000000000000000000000000081526004016115b890612143565b60405180910390fd5b6115fa6115d8603083610e3c90919063ffffffff16565b6115ec600a8661163a90919063ffffffff16565b61102a90919063ffffffff16565b9250508080600101915050611548565b50919050565b60006004820183511015151561162557600080fd5b60008260048501015190508091505092915050565b60008083141561164d5760009050611672565b6000828402905082848281151561166057fe5b0414151561166d57600080fd5b809150505b92915050565b60a060405190810160405280600073ffffffffffffffffffffffffffffffffffffffff168152602001606081526020016060815260200160608152602001606081525090565b60006116ca82356123df565b905092915050565b60006116de82516123df565b905092915050565b600082601f83011215156116f957600080fd5b815161170c61170782612229565b6121fc565b9150818183526020840193506020810190508360005b83811015611752578151860161173888826117e1565b845260208401935060208301925050600181019050611722565b5050505092915050565b600082601f830112151561176f57600080fd5b813561178261177d82612251565b6121fc565b915081818352602084019350602081019050838560208402820111156117a757600080fd5b60005b838110156117d757816117bd88826118be565b8452602084019350602083019250506001810190506117aa565b5050505092915050565b600082601f83011215156117f457600080fd5b600261180761180282612279565b6121fc565b9150818360005b8381101561183e57815186016118248882611928565b84526020840193506020830192505060018101905061180e565b5050505092915050565b600082601f830112151561185b57600080fd5b813561186e6118698261229b565b6121fc565b9150818183526020840193506020810190508360005b838110156118b4578135860161189a88826118d2565b845260208401935060208301925050600181019050611884565b5050505092915050565b60006118ca82356123f1565b905092915050565b600082601f83011215156118e557600080fd5b81356118f86118f3826122c3565b6121fc565b9150808252602083016020830185838301111561191457600080fd5b61191f838284612429565b50505092915050565b600082601f830112151561193b57600080fd5b815161194e611949826122c3565b6121fc565b9150808252602083016020830185838301111561196a57600080fd5b611975838284612438565b50505092915050565b600082601f830112151561199157600080fd5b81356119a461199f826122ef565b6121fc565b915080825260208301602083018583830111156119c057600080fd5b6119cb838284612429565b50505092915050565b600060e082840312156119e657600080fd5b6119f060e06121fc565b90506000611a0084828501611b94565b6000830152506020611a1484828501611b94565b6020830152506040611a28848285016118be565b6040830152506060611a3c848285016118be565b6060830152506080611a50848285016118be565b60808301525060a0611a64848285016118be565b60a08301525060c0611a78848285016118be565b60c08301525092915050565b600060a08284031215611a9657600080fd5b611aa060a06121fc565b90506000611ab0848285016116d2565b600083015250602082015167ffffffffffffffff811115611ad057600080fd5b611adc84828501611928565b602083015250604082015167ffffffffffffffff811115611afc57600080fd5b611b0884828501611928565b604083015250606082015167ffffffffffffffff811115611b2857600080fd5b611b34848285016116e6565b606083015250608082015167ffffffffffffffff811115611b5457600080fd5b611b6084828501611928565b60808301525092915050565b6000611b7882356123fb565b905092915050565b6000611b8c8235612405565b905092915050565b6000611ba08235612415565b905092915050565b600060208284031215611bba57600080fd5b6000611bc8848285016116be565b91505092915050565b60008060408385031215611be457600080fd5b6000611bf2858286016116be565b9250506020611c03858286016116be565b9150509250929050565b600080600060608486031215611c2257600080fd5b6000611c30868287016116be565b9350506020611c41868287016116be565b9250506040611c5286828701611b6c565b9150509250925092565b60008060408385031215611c6f57600080fd5b6000611c7d858286016116be565b9250506020611c8e85828601611b6c565b9150509250929050565b600060208284031215611caa57600080fd5b6000611cb8848285016118be565b91505092915050565b60008060008060006101608688031215611cda57600080fd5b600086013567ffffffffffffffff811115611cf457600080fd5b611d008882890161197e565b955050602086013567ffffffffffffffff811115611d1d57600080fd5b611d298882890161175c565b9450506040611d3a888289016119d4565b935050610120611d4c88828901611b80565b92505061014086013567ffffffffffffffff811115611d6a57600080fd5b611d7688828901611848565b9150509295509295909350565b600060208284031215611d9557600080fd5b600082015167ffffffffffffffff811115611daf57600080fd5b611dbb84828501611a84565b91505092915050565b6000611dcf82612335565b808452602084019350611de18361231b565b60005b82811015611e1357611df7868351611eab565b611e0082612361565b9150602086019550600181019050611de4565b50849250505092915050565b6000611e2a82612340565b80845260208401935083602082028501611e4385612328565b60005b84811015611e7c578383038852611e5e838351611ef0565b9250611e698261236e565b9150602088019750600181019050611e46565b508196508694505050505092915050565b611e968161237b565b82525050565b611ea581612387565b82525050565b611eb481612387565b82525050565b6000611ec582612356565b808452611ed9816020860160208601612438565b611ee28161246b565b602085010191505092915050565b6000611efb8261234b565b808452611f0f816020860160208601612438565b611f188161246b565b602085010191505092915050565b6000601a82527f5369676e657220616e642073656e646572206d69736d617463680000000000006020830152604082019050919050565b6000600d82527f496e76616c69642076616c7565000000000000000000000000000000000000006020830152604082019050919050565b6000601382527f496e76616c6964207472616e73616374696f6e000000000000000000000000006020830152604082019050919050565b60e082016000820151611fe1600085018261207e565b506020820151611ff4602085018261207e565b5060408201516120076040850182611eab565b50606082015161201a6060850182611eab565b50608082015161202d6080850182611eab565b5060a082015161204060a0850182611eab565b5060c082015161205360c0850182611eab565b50505050565b8082525050565b612069816123b1565b82525050565b612078816123bb565b82525050565b612087816123cb565b82525050565b600060608201905081810360008301526120a78186611dc4565b90506120b66020830185611eab565b6120c36040830184611eab565b949350505050565b60006020820190506120e06000830184611e8d565b92915050565b60006020820190506120fb6000830184611e9c565b92915050565b6000602082019050818103600083015261211b8184611eba565b905092915050565b6000602082019050818103600083015261213c81611f26565b9050919050565b6000602082019050818103600083015261215c81611f5d565b9050919050565b6000602082019050818103600083015261217c81611f94565b9050919050565b6000610160820190506121996000830188612059565b6121a66020830187611fcb565b6121b461010083018661206f565b6121c2610120830185611eab565b8181036101408301526121d58184611e1f565b90509695505050505050565b60006020820190506121f66000830184612060565b92915050565b6000604051905081810181811067ffffffffffffffff8211171561221f57600080fd5b8060405250919050565b600067ffffffffffffffff82111561224057600080fd5b602082029050602081019050919050565b600067ffffffffffffffff82111561226857600080fd5b602082029050602081019050919050565b600067ffffffffffffffff82111561229057600080fd5b602082029050919050565b600067ffffffffffffffff8211156122b257600080fd5b602082029050602081019050919050565b600067ffffffffffffffff8211156122da57600080fd5b601f19601f8301169050602081019050919050565b600067ffffffffffffffff82111561230657600080fd5b601f19601f8301169050602081019050919050565b6000602082019050919050565b6000602082019050919050565b600081519050919050565b600081519050919050565b600081519050919050565b600081519050919050565b6000602082019050919050565b6000602082019050919050565b60008115159050919050565b6000819050919050565b600073ffffffffffffffffffffffffffffffffffffffff82169050919050565b6000819050919050565b600063ffffffff82169050919050565b600067ffffffffffffffff82169050919050565b60006123ea82612391565b9050919050565b6000819050919050565b6000819050919050565b600063ffffffff82169050919050565b600067ffffffffffffffff82169050919050565b82818337600083830152505050565b60005b8381101561245657808201518184015260208101905061243b565b83811115612465576000848401525b50505050565b6000601f19601f830116905091905056fea265627a7a7230582001a8795629db7af4c10faa6b9421e12df1cd986acc3383f22054c3ae995358c96c6578706572696d656e74616cf50037",
  "source": "/*\n  Copyright 2018 Bit Factory, Inc.\n\n  This Source Code Form is subject to the terms of the Mozilla Public\n  License, v. 2.0. If a copy of the MPL was not distributed with this\n  file, You can obtain one at http://mozilla.org/MPL/2.0/.\n*/\n\npragma solidity ^0.5.0;\npragma experimental ABIEncoderV2;\n\nimport \"openzeppelin-solidity/contracts/math/SafeMath.sol\";\nimport \"openzeppelin-solidity/contracts/token/ERC20/ERC20.sol\";\nimport \"./Uniqys.sol\";\n\n/**\n * @title Withdrawable\n * @dev ERC20 withdraw logic\n */\ncontract Withdrawable is ERC20 {\n    using SafeMath for uint256;\n    using BytesLib for bytes;\n\n    bytes WITHDRAW_KEY = bytes(\"Withdraw:\");\n    mapping (bytes32 => bool) public usedTx;\n    bytes32 public genesisHash;\n    Uniqys.ValidatorSet public validatorSet;\n\n    event Withdraw(address indexed account, uint256 value);\n\n    constructor (bytes32 _genesisHash) public {\n        genesisHash = _genesisHash;\n    }\n\n    /**\n     * @dev Function to withdraw tokens\n     * @param _transaction The amount of tokens to withdraw.\n     * @return A boolean that indicates if the operation was successful.\n     */\n    function withdraw(\n        bytes memory _transaction,\n        bytes32[] memory _transactionProof,\n        Uniqys.BlockHeader memory _header,\n        uint32 _consensusRound,\n        bytes[] memory _signatures\n    )\n        public\n        returns (bool)\n    {\n        bytes32 _txHash = keccak256(_transaction);\n        uint _value = _parseWithdrawTransaction(_transaction);\n        require(_value > 0, \"Invalid transaction\");\n\n        Uniqys.verifyBlockHeader(validatorSet, _header, _consensusRound, genesisHash, _signatures);\n        Uniqys.verifyTransaction(_transactionProof, _header.appStateHash, keccak256(_transaction));\n\n        _mint(msg.sender, _value);\n        usedTx[_txHash] = true;\n        emit Withdraw(msg.sender, _value);\n        return true;\n    }\n\n    function _parseWithdrawTransaction(bytes memory _transaction) private returns (uint256 value) {\n        Uniqys.Transaction memory _parsed = Uniqys.parseTransaction(_transaction);\n        require(_parsed.signer == msg.sender, \"Signer and sender mismatch\");\n        require(WITHDRAW_KEY.equal(_parsed.body.slice(0, WITHDRAW_KEY.length)), \"Invalid transaction\");\n        value = _stringToUint(_parsed.body.slice(WITHDRAW_KEY.length, _parsed.body.length - WITHDRAW_KEY.length));\n    }\n\n    function _stringToUint(bytes memory _b) private returns (uint256 result) {\n        result = 0;\n        for (uint i = 0; i < _b.length; i++) {\n            uint256 _c = _b.toUint32(i);\n            require(_c >= 48 && _c <= 57, \"Invalid value\");\n            result = result.mul(10).add(_c.sub(48));\n        }\n    }\n}\n",
  "sourcePath": "/Users/t-yamazaki/work/UniqysKit/packages/event-provider/ethereum/contracts/Withdrawable.sol",
  "compiler": {
    "name": "solc",
    "version": "0.5.0+commit.1d4f565a.Emscripten.clang"
  },
  "schemaVersion": "3.0.2",
  "updatedAt": "2019-03-12T03:14:04.420Z",
  "devdoc": {
    "details": "ERC20 withdraw logic",
    "methods": {
      "allowance(address,address)": {
        "details": "Function to check the amount of tokens that an owner allowed to a spender.",
        "params": {
          "owner": "address The address which owns the funds.",
          "spender": "address The address which will spend the funds."
        },
        "return": "A uint256 specifying the amount of tokens still available for the spender."
      },
      "approve(address,uint256)": {
        "details": "Approve the passed address to spend the specified amount of tokens on behalf of msg.sender. Beware that changing an allowance with this method brings the risk that someone may use both the old and the new allowance by unfortunate transaction ordering. One possible solution to mitigate this race condition is to first reduce the spender's allowance to 0 and set the desired value afterwards: https://github.com/ethereum/EIPs/issues/20#issuecomment-263524729",
        "params": {
          "spender": "The address which will spend the funds.",
          "value": "The amount of tokens to be spent."
        }
      },
      "balanceOf(address)": {
        "details": "Gets the balance of the specified address.",
        "params": {
          "owner": "The address to query the balance of."
        },
        "return": "An uint256 representing the amount owned by the passed address."
      },
      "decreaseAllowance(address,uint256)": {
        "details": "Decrease the amount of tokens that an owner allowed to a spender. approve should be called when allowed_[_spender] == 0. To decrement allowed value is better to use this function to avoid 2 calls (and wait until the first transaction is mined) From MonolithDAO Token.sol Emits an Approval event.",
        "params": {
          "spender": "The address which will spend the funds.",
          "subtractedValue": "The amount of tokens to decrease the allowance by."
        }
      },
      "increaseAllowance(address,uint256)": {
        "details": "Increase the amount of tokens that an owner allowed to a spender. approve should be called when allowed_[_spender] == 0. To increment allowed value is better to use this function to avoid 2 calls (and wait until the first transaction is mined) From MonolithDAO Token.sol Emits an Approval event.",
        "params": {
          "addedValue": "The amount of tokens to increase the allowance by.",
          "spender": "The address which will spend the funds."
        }
      },
      "totalSupply()": {
        "details": "Total number of tokens in existence"
      },
      "transfer(address,uint256)": {
        "details": "Transfer token for a specified address",
        "params": {
          "to": "The address to transfer to.",
          "value": "The amount to be transferred."
        }
      },
      "transferFrom(address,address,uint256)": {
        "details": "Transfer tokens from one address to another. Note that while this function emits an Approval event, this is not required as per the specification, and other compliant implementations may not emit the event.",
        "params": {
          "from": "address The address which you want to send tokens from",
          "to": "address The address which you want to transfer to",
          "value": "uint256 the amount of tokens to be transferred"
        }
      },
      "withdraw(bytes,bytes32[],(uint64,uint64,bytes32,bytes32,bytes32,bytes32,bytes32),uint32,bytes[])": {
        "details": "Function to withdraw tokens",
        "params": {
          "_transaction": "The amount of tokens to withdraw."
        },
        "return": "A boolean that indicates if the operation was successful."
      }
    },
    "title": "Withdrawable"
  },
  "userdoc": {
    "methods": {}
  }
}